{
  "contractName": "UsersContract",
  "abi": [
    {
      "anonymous": false,
      "inputs": [
        {
          "indexed": false,
          "internalType": "uint256",
          "name": "id",
          "type": "uint256"
        },
        {
          "indexed": false,
          "internalType": "string",
          "name": "name",
          "type": "string"
        },
        {
          "indexed": false,
          "internalType": "string",
          "name": "surname",
          "type": "string"
        }
      ],
      "name": "UserCreated",
      "type": "event"
    },
    {
      "anonymous": false,
      "inputs": [
        {
          "indexed": false,
          "internalType": "uint256",
          "name": "id",
          "type": "uint256"
        }
      ],
      "name": "UserDeleted",
      "type": "event"
    },
    {
      "constant": true,
      "inputs": [],
      "name": "userCount",
      "outputs": [
        {
          "internalType": "uint256",
          "name": "",
          "type": "uint256"
        }
      ],
      "payable": false,
      "stateMutability": "view",
      "type": "function"
    },
    {
      "constant": true,
      "inputs": [
        {
          "internalType": "uint256",
          "name": "",
          "type": "uint256"
        }
      ],
      "name": "users",
      "outputs": [
        {
          "internalType": "uint256",
          "name": "id",
          "type": "uint256"
        },
        {
          "internalType": "string",
          "name": "name",
          "type": "string"
        },
        {
          "internalType": "string",
          "name": "surname",
          "type": "string"
        }
      ],
      "payable": false,
      "stateMutability": "view",
      "type": "function"
    },
    {
      "constant": false,
      "inputs": [
        {
          "internalType": "string",
          "name": "_name",
          "type": "string"
        },
        {
          "internalType": "string",
          "name": "_surname",
          "type": "string"
        }
      ],
      "name": "createUser",
      "outputs": [],
      "payable": false,
      "stateMutability": "nonpayable",
      "type": "function"
    },
    {
      "constant": false,
      "inputs": [
        {
          "internalType": "uint256",
          "name": "_id",
          "type": "uint256"
        }
      ],
      "name": "deleteUser",
      "outputs": [],
      "payable": false,
      "stateMutability": "nonpayable",
      "type": "function"
    }
  ],
  "bytecode": "0x60806040526000805534801561001457600080fd5b506107b5806100246000396000f3fe608060405234801561001057600080fd5b506004361061004c5760003560e01c806307973ccf14610051578063365b98b21461006f57806338f148451461018957806387b162b5146101b7575b600080fd5b610059610309565b6040518082815260200191505060405180910390f35b61009b6004803603602081101561008557600080fd5b810190808035906020019092919050505061030f565b604051808481526020018060200180602001838103835285818151815260200191508051906020019080838360005b838110156100e55780820151818401526020810190506100ca565b50505050905090810190601f1680156101125780820380516001836020036101000a031916815260200191505b50838103825284818151815260200191508051906020019080838360005b8381101561014b578082015181840152602081019050610130565b50505050905090810190601f1680156101785780820380516001836020036101000a031916815260200191505b509550505050505060405180910390f35b6101b56004803603602081101561019f57600080fd5b8101908080359060200190929190505050610469565b005b610307600480360360408110156101cd57600080fd5b81019080803590602001906401000000008111156101ea57600080fd5b8201836020820111156101fc57600080fd5b8035906020019184600183028401116401000000008311171561021e57600080fd5b91908080601f016020809104026020016040519081016040528093929190818152602001838380828437600081840152601f19601f8201169050808301925050505050505091929192908035906020019064010000000081111561028157600080fd5b82018360208201111561029357600080fd5b803590602001918460018302840111640100000000831117156102b557600080fd5b91908080601f016020809104026020016040519081016040528093929190818152602001838380828437600081840152601f19601f8201169050808301925050505050505091929192905050506104f3565b005b60005481565b6001602052806000526040600020600091509050806000015490806001018054600181600116156101000203166002900480601f0160208091040260200160405190810160405280929190818152602001828054600181600116156101000203166002900480156103c15780601f10610396576101008083540402835291602001916103c1565b820191906000526020600020905b8154815290600101906020018083116103a457829003601f168201915b505050505090806002018054600181600116156101000203166002900480601f01602080910402602001604051908101604052809291908181526020018280546001816001161561010002031660029004801561045f5780601f106104345761010080835404028352916020019161045f565b820191906000526020600020905b81548152906001019060200180831161044257829003601f168201915b5050505050905083565b600160008281526020019081526020016000206000808201600090556001820160006104959190610693565b6002820160006104a59190610693565b50507f42a77abd0397855f875460bb511f41935bfa5f396b556d95717d8c2e08334aae816040518082815260200191505060405180910390a160008081548092919060019003919050555050565b6040518060600160405280600054815260200183815260200182815250600160008054815260200190815260200160002060008201518160000155602082015181600101908051906020019061054a9291906106db565b5060408201518160020190805190602001906105679291906106db565b509050507fa1a1af9c5c29e69f23e5ac29120f6a7ea106635803581b461fab3a26faeae6776000548383604051808481526020018060200180602001838103835285818151815260200191508051906020019080838360005b838110156105db5780820151818401526020810190506105c0565b50505050905090810190601f1680156106085780820380516001836020036101000a031916815260200191505b50838103825284818151815260200191508051906020019080838360005b83811015610641578082015181840152602081019050610626565b50505050905090810190601f16801561066e5780820380516001836020036101000a031916815260200191505b509550505050505060405180910390a160008081548092919060010191905055505050565b50805460018160011615610100020316600290046000825580601f106106b957506106d8565b601f0160209004906000526020600020908101906106d7919061075b565b5b50565b828054600181600116156101000203166002900490600052602060002090601f016020900481019282601f1061071c57805160ff191683800117855561074a565b8280016001018555821561074a579182015b8281111561074957825182559160200191906001019061072e565b5b509050610757919061075b565b5090565b61077d91905b80821115610779576000816000905550600101610761565b5090565b9056fea265627a7a723158208c883d93ac83e4e120e097c6475cebacaf9f2d1f5bc35cbbc5ac71ed826f909364736f6c63430005100032",
  "source": "// SPDX-License-Identifier: MIT\npragma solidity >=0.5.16 <0.9.0;\n\ncontract UsersContract {\n    uint256 public userCount = 0;\n\n    struct User {\n        uint256 id;\n        string name;\n        string surname;\n    }\n\n    mapping(uint256 => User) public users;\n\n    event UserCreated(uint256 id, string name, string surname);\n    event UserDeleted(uint256 id);\n\n    function createUser(string memory _name, string memory _surname) public {\n            users[userCount] = User(userCount, _name, _surname);\n            emit UserCreated(userCount, _name, _surname);\n            userCount++;\n    }\n\n    function deleteUser(uint256 _id) public{\n        delete users[_id];\n        emit UserDeleted(_id);\n        userCount--;\n    }\n}\n",
  "sourcePath": "/Users/gizemmalcok/Documents/GitHub/flutter_dapp_example/contracts/UserContract.sol",
  "compiler": {
    "name": "solc",
    "version": "0.5.16+commit.9c3226ce.Emscripten.clang"
  },
  "schemaVersion": "3.4.13",
  "updatedAt": "2023-03-08T20:40:18.423Z",
  "devdoc": {
    "methods": {}
  },
  "userdoc": {
    "methods": {}
  }
}