{
  "contractName": "UsersContract",
  "abi": [
    {
      "anonymous": false,
      "inputs": [
        {
          "indexed": false,
          "internalType": "uint256",
          "name": "id",
          "type": "uint256"
        },
        {
          "indexed": false,
          "internalType": "string",
          "name": "name",
          "type": "string"
        },
        {
          "indexed": false,
          "internalType": "string",
          "name": "surname",
          "type": "string"
        }
      ],
      "name": "UserCreated",
      "type": "event"
    },
    {
      "anonymous": false,
      "inputs": [
        {
          "indexed": false,
          "internalType": "uint256",
          "name": "id",
          "type": "uint256"
        }
      ],
      "name": "UserDeleted",
      "type": "event"
    },
    {
      "inputs": [],
      "name": "userCount",
      "outputs": [
        {
          "internalType": "uint256",
          "name": "",
          "type": "uint256"
        }
      ],
      "stateMutability": "view",
      "type": "function"
    },
    {
      "inputs": [
        {
          "internalType": "uint256",
          "name": "",
          "type": "uint256"
        }
      ],
      "name": "users",
      "outputs": [
        {
          "internalType": "uint256",
          "name": "id",
          "type": "uint256"
        },
        {
          "internalType": "string",
          "name": "name",
          "type": "string"
        },
        {
          "internalType": "string",
          "name": "surname",
          "type": "string"
        }
      ],
      "stateMutability": "view",
      "type": "function"
    },
    {
      "inputs": [
        {
          "internalType": "string",
          "name": "_name",
          "type": "string"
        },
        {
          "internalType": "string",
          "name": "_surname",
          "type": "string"
        }
      ],
      "name": "createUser",
      "outputs": [],
      "stateMutability": "nonpayable",
      "type": "function"
    },
    {
      "inputs": [
        {
          "internalType": "uint256",
          "name": "_id",
          "type": "uint256"
        }
      ],
      "name": "deleteUser",
      "outputs": [],
      "stateMutability": "nonpayable",
      "type": "function"
    }
  ],
  "bytecode": "0x60806040526000805534801561001457600080fd5b50610a9e806100246000396000f3fe608060405234801561001057600080fd5b506004361061004c5760003560e01c806307973ccf14610051578063365b98b21461006f57806338f14845146100a157806387b162b5146100bd575b600080fd5b6100596100d9565b60405161006691906103e0565b60405180910390f35b6100896004803603810190610084919061043b565b6100df565b604051610098939291906104f8565b60405180910390f35b6100bb60048036038101906100b6919061043b565b610219565b005b6100d760048036038101906100d29190610672565b6102a8565b005b60005481565b600160205280600052604060002060009150905080600001549080600101805461010890610719565b80601f016020809104026020016040519081016040528092919081815260200182805461013490610719565b80156101815780601f1061015657610100808354040283529160200191610181565b820191906000526020600020905b81548152906001019060200180831161016457829003601f168201915b50505050509080600201805461019690610719565b80601f01602080910402602001604051908101604052809291908181526020018280546101c290610719565b801561020f5780601f106101e45761010080835404028352916020019161020f565b820191906000526020600020905b8154815290600101906020018083116101f257829003601f168201915b5050505050905083565b60016000828152602001908152602001600020600080820160009055600182016000610245919061036a565b600282016000610255919061036a565b50507f42a77abd0397855f875460bb511f41935bfa5f396b556d95717d8c2e08334aae8160405161028691906103e0565b60405180910390a16000808154809291906102a090610779565b919050555050565b604051806060016040528060005481526020018381526020018281525060016000805481526020019081526020016000206000820151816000015560208201518160010190816102f8919061094e565b50604082015181600201908161030e919061094e565b509050507fa1a1af9c5c29e69f23e5ac29120f6a7ea106635803581b461fab3a26faeae6776000548383604051610347939291906104f8565b60405180910390a160008081548092919061036190610a20565b91905055505050565b50805461037690610719565b6000825580601f1061038857506103a7565b601f0160209004906000526020600020908101906103a691906103aa565b5b50565b5b808211156103c35760008160009055506001016103ab565b5090565b6000819050919050565b6103da816103c7565b82525050565b60006020820190506103f560008301846103d1565b92915050565b6000604051905090565b600080fd5b600080fd5b610418816103c7565b811461042357600080fd5b50565b6000813590506104358161040f565b92915050565b60006020828403121561045157610450610405565b5b600061045f84828501610426565b91505092915050565b600081519050919050565b600082825260208201905092915050565b60005b838110156104a2578082015181840152602081019050610487565b60008484015250505050565b6000601f19601f8301169050919050565b60006104ca82610468565b6104d48185610473565b93506104e4818560208601610484565b6104ed816104ae565b840191505092915050565b600060608201905061050d60008301866103d1565b818103602083015261051f81856104bf565b9050818103604083015261053381846104bf565b9050949350505050565b600080fd5b600080fd5b7f4e487b7100000000000000000000000000000000000000000000000000000000600052604160045260246000fd5b61057f826104ae565b810181811067ffffffffffffffff8211171561059e5761059d610547565b5b80604052505050565b60006105b16103fb565b90506105bd8282610576565b919050565b600067ffffffffffffffff8211156105dd576105dc610547565b5b6105e6826104ae565b9050602081019050919050565b82818337600083830152505050565b6000610615610610846105c2565b6105a7565b90508281526020810184848401111561063157610630610542565b5b61063c8482856105f3565b509392505050565b600082601f8301126106595761065861053d565b5b8135610669848260208601610602565b91505092915050565b6000806040838503121561068957610688610405565b5b600083013567ffffffffffffffff8111156106a7576106a661040a565b5b6106b385828601610644565b925050602083013567ffffffffffffffff8111156106d4576106d361040a565b5b6106e085828601610644565b9150509250929050565b7f4e487b7100000000000000000000000000000000000000000000000000000000600052602260045260246000fd5b6000600282049050600182168061073157607f821691505b602082108103610744576107436106ea565b5b50919050565b7f4e487b7100000000000000000000000000000000000000000000000000000000600052601160045260246000fd5b6000610784826103c7565b9150600082036107975761079661074a565b5b600182039050919050565b60008190508160005260206000209050919050565b60006020601f8301049050919050565b600082821b905092915050565b6000600883026108047fffffffffffffffffffffffffffffffffffffffffffffffffffffffffffffffff826107c7565b61080e86836107c7565b95508019841693508086168417925050509392505050565b6000819050919050565b600061084b610846610841846103c7565b610826565b6103c7565b9050919050565b6000819050919050565b61086583610830565b61087961087182610852565b8484546107d4565b825550505050565b600090565b61088e610881565b61089981848461085c565b505050565b5b818110156108bd576108b2600082610886565b60018101905061089f565b5050565b601f821115610902576108d3816107a2565b6108dc846107b7565b810160208510156108eb578190505b6108ff6108f7856107b7565b83018261089e565b50505b505050565b600082821c905092915050565b600061092560001984600802610907565b1980831691505092915050565b600061093e8383610914565b9150826002028217905092915050565b61095782610468565b67ffffffffffffffff8111156109705761096f610547565b5b61097a8254610719565b6109858282856108c1565b600060209050601f8311600181146109b857600084156109a6578287015190505b6109b08582610932565b865550610a18565b601f1984166109c6866107a2565b60005b828110156109ee578489015182556001820191506020850194506020810190506109c9565b86831015610a0b5784890151610a07601f891682610914565b8355505b6001600288020188555050505b505050505050565b6000610a2b826103c7565b91507fffffffffffffffffffffffffffffffffffffffffffffffffffffffffffffffff8203610a5d57610a5c61074a565b5b60018201905091905056fea2646970667358221220a79eaa18607f5699d58d659fe52ddb7e9106051f469b6c2a87958dfb6f0e630264736f6c63430008130033",
  "immutableReferences": {},
  "source": "// SPDX-License-Identifier: MIT\npragma solidity >=0.8.2 <0.9.0;\n\ncontract UsersContract {\n    uint256 public userCount = 0;\n\n    struct User {\n        uint256 id;\n        string name;\n        string surname;\n    }\n\n    mapping(uint256 => User) public users;\n\n    event UserCreated(uint256 id, string name, string surname);\n    event UserDeleted(uint256 id);\n\n    function createUser(string memory _name, string memory _surname) public {\n            users[userCount] = User(userCount, _name, _surname);\n            emit UserCreated(userCount, _name, _surname);\n            userCount++;\n    }\n\n    function deleteUser(uint256 _id) public{\n        delete users[_id];\n        emit UserDeleted(_id);\n        userCount--;\n    }\n}\n",
  "sourcePath": "/Users/gizemmalcok/Desktop/flutter_dapp_example/contracts/UserContract.sol",
  "compiler": {
    "name": "solc",
    "version": "0.8.19+commit.7dd6d404.Emscripten.clang"
  },
  "schemaVersion": "3.4.13",
  "updatedAt": "2023-03-08T19:47:07.909Z",
  "devdoc": {
    "kind": "dev",
    "methods": {},
    "version": 1
  },
  "userdoc": {
    "kind": "user",
    "methods": {},
    "version": 1
  }
}